{
  "abi": [
    {
      "inputs": [
        {
          "internalType": "string",
          "name": "_name",
          "type": "string"
        },
        {
          "internalType": "string",
          "name": "_symbol",
          "type": "string"
        }
      ],
      "stateMutability": "nonpayable",
      "type": "constructor"
    },
    {
      "inputs": [],
      "name": "nonExistentTokenId",
      "type": "error"
    },
    {
      "anonymous": false,
      "inputs": [
        {
          "indexed": true,
          "internalType": "address",
          "name": "owner",
          "type": "address"
        },
        {
          "indexed": true,
          "internalType": "address",
          "name": "spender",
          "type": "address"
        },
        {
          "indexed": true,
          "internalType": "uint256",
          "name": "id",
          "type": "uint256"
        }
      ],
      "name": "Approval",
      "type": "event"
    },
    {
      "anonymous": false,
      "inputs": [
        {
          "indexed": true,
          "internalType": "address",
          "name": "owner",
          "type": "address"
        },
        {
          "indexed": true,
          "internalType": "address",
          "name": "operator",
          "type": "address"
        },
        {
          "indexed": false,
          "internalType": "bool",
          "name": "approved",
          "type": "bool"
        }
      ],
      "name": "ApprovalForAll",
      "type": "event"
    },
    {
      "anonymous": false,
      "inputs": [
        {
          "indexed": true,
          "internalType": "address",
          "name": "previousOwner",
          "type": "address"
        },
        {
          "indexed": true,
          "internalType": "address",
          "name": "newOwner",
          "type": "address"
        }
      ],
      "name": "OwnershipTransferred",
      "type": "event"
    },
    {
      "anonymous": false,
      "inputs": [
        {
          "indexed": true,
          "internalType": "address",
          "name": "from",
          "type": "address"
        },
        {
          "indexed": true,
          "internalType": "address",
          "name": "to",
          "type": "address"
        },
        {
          "indexed": true,
          "internalType": "uint256",
          "name": "id",
          "type": "uint256"
        }
      ],
      "name": "Transfer",
      "type": "event"
    },
    {
      "inputs": [
        {
          "internalType": "uint256[]",
          "name": "profaneTokenIds",
          "type": "uint256[]"
        }
      ],
      "name": "adminProfanityFilter",
      "outputs": [],
      "stateMutability": "nonpayable",
      "type": "function"
    },
    {
      "inputs": [],
      "name": "adminWithdraw",
      "outputs": [],
      "stateMutability": "nonpayable",
      "type": "function"
    },
    {
      "inputs": [
        {
          "internalType": "address",
          "name": "spender",
          "type": "address"
        },
        {
          "internalType": "uint256",
          "name": "id",
          "type": "uint256"
        }
      ],
      "name": "approve",
      "outputs": [],
      "stateMutability": "nonpayable",
      "type": "function"
    },
    {
      "inputs": [
        {
          "internalType": "address",
          "name": "owner",
          "type": "address"
        }
      ],
      "name": "balanceOf",
      "outputs": [
        {
          "internalType": "uint256",
          "name": "",
          "type": "uint256"
        }
      ],
      "stateMutability": "view",
      "type": "function"
    },
    {
      "inputs": [],
      "name": "currentTokenId",
      "outputs": [
        {
          "internalType": "uint256",
          "name": "",
          "type": "uint256"
        }
      ],
      "stateMutability": "view",
      "type": "function"
    },
    {
      "inputs": [
        {
          "internalType": "uint256",
          "name": "",
          "type": "uint256"
        }
      ],
      "name": "getApproved",
      "outputs": [
        {
          "internalType": "address",
          "name": "",
          "type": "address"
        }
      ],
      "stateMutability": "view",
      "type": "function"
    },
    {
      "inputs": [
        {
          "internalType": "address",
          "name": "",
          "type": "address"
        },
        {
          "internalType": "address",
          "name": "",
          "type": "address"
        }
      ],
      "name": "isApprovedForAll",
      "outputs": [
        {
          "internalType": "bool",
          "name": "",
          "type": "bool"
        }
      ],
      "stateMutability": "view",
      "type": "function"
    },
    {
      "inputs": [
        {
          "internalType": "string",
          "name": "ipfsMetadata",
          "type": "string"
        }
      ],
      "name": "mint",
      "outputs": [
        {
          "internalType": "uint256",
          "name": "",
          "type": "uint256"
        }
      ],
      "stateMutability": "payable",
      "type": "function"
    },
    {
      "inputs": [],
      "name": "name",
      "outputs": [
        {
          "internalType": "string",
          "name": "",
          "type": "string"
        }
      ],
      "stateMutability": "view",
      "type": "function"
    },
    {
      "inputs": [],
      "name": "owner",
      "outputs": [
        {
          "internalType": "address",
          "name": "",
          "type": "address"
        }
      ],
      "stateMutability": "view",
      "type": "function"
    },
    {
      "inputs": [
        {
          "internalType": "uint256",
          "name": "id",
          "type": "uint256"
        }
      ],
      "name": "ownerOf",
      "outputs": [
        {
          "internalType": "address",
          "name": "owner",
          "type": "address"
        }
      ],
      "stateMutability": "view",
      "type": "function"
    },
    {
      "inputs": [],
      "name": "renounceOwnership",
      "outputs": [],
      "stateMutability": "nonpayable",
      "type": "function"
    },
    {
      "inputs": [
        {
          "internalType": "address",
          "name": "from",
          "type": "address"
        },
        {
          "internalType": "address",
          "name": "to",
          "type": "address"
        },
        {
          "internalType": "uint256",
          "name": "id",
          "type": "uint256"
        }
      ],
      "name": "safeTransferFrom",
      "outputs": [],
      "stateMutability": "nonpayable",
      "type": "function"
    },
    {
      "inputs": [
        {
          "internalType": "address",
          "name": "from",
          "type": "address"
        },
        {
          "internalType": "address",
          "name": "to",
          "type": "address"
        },
        {
          "internalType": "uint256",
          "name": "id",
          "type": "uint256"
        },
        {
          "internalType": "bytes",
          "name": "data",
          "type": "bytes"
        }
      ],
      "name": "safeTransferFrom",
      "outputs": [],
      "stateMutability": "nonpayable",
      "type": "function"
    },
    {
      "inputs": [
        {
          "internalType": "address",
          "name": "operator",
          "type": "address"
        },
        {
          "internalType": "bool",
          "name": "approved",
          "type": "bool"
        }
      ],
      "name": "setApprovalForAll",
      "outputs": [],
      "stateMutability": "nonpayable",
      "type": "function"
    },
    {
      "inputs": [
        {
          "internalType": "bytes4",
          "name": "interfaceId",
          "type": "bytes4"
        }
      ],
      "name": "supportsInterface",
      "outputs": [
        {
          "internalType": "bool",
          "name": "",
          "type": "bool"
        }
      ],
      "stateMutability": "view",
      "type": "function"
    },
    {
      "inputs": [],
      "name": "symbol",
      "outputs": [
        {
          "internalType": "string",
          "name": "",
          "type": "string"
        }
      ],
      "stateMutability": "view",
      "type": "function"
    },
    {
      "inputs": [
        {
          "internalType": "uint256",
          "name": "tokenId",
          "type": "uint256"
        }
      ],
      "name": "tokenURI",
      "outputs": [
        {
          "internalType": "string",
          "name": "",
          "type": "string"
        }
      ],
      "stateMutability": "view",
      "type": "function"
    },
    {
      "inputs": [
        {
          "internalType": "address",
          "name": "from",
          "type": "address"
        },
        {
          "internalType": "address",
          "name": "to",
          "type": "address"
        },
        {
          "internalType": "uint256",
          "name": "id",
          "type": "uint256"
        }
      ],
      "name": "transferFrom",
      "outputs": [],
      "stateMutability": "nonpayable",
      "type": "function"
    },
    {
      "inputs": [
        {
          "internalType": "address",
          "name": "newOwner",
          "type": "address"
        }
      ],
      "name": "transferOwnership",
      "outputs": [],
      "stateMutability": "nonpayable",
      "type": "function"
    },
    {
      "stateMutability": "payable",
      "type": "receive"
    }
  ],
  "bytecode": {
    "object": "0x60806040523480156200001157600080fd5b50604051620019a7380380620019a783398101604081905262000034916200019e565b8181600062000044838262000297565b50600162000053828262000297565b505050620000706200006a6200008360201b60201c565b62000087565b6200007b3362000087565b505062000363565b3390565b600680546001600160a01b038381166001600160a01b0319831681179093556040519116919082907f8be0079c531659141344cd1fd0a4f28419497f9722a3daafe3b4186f6b6457e090600090a35050565b634e487b7160e01b600052604160045260246000fd5b600082601f8301126200010157600080fd5b81516001600160401b03808211156200011e576200011e620000d9565b604051601f8301601f19908116603f01168101908282118183101715620001495762000149620000d9565b816040528381526020925086838588010111156200016657600080fd5b600091505b838210156200018a57858201830151818301840152908201906200016b565b600093810190920192909252949350505050565b60008060408385031215620001b257600080fd5b82516001600160401b0380821115620001ca57600080fd5b620001d886838701620000ef565b93506020850151915080821115620001ef57600080fd5b50620001fe85828601620000ef565b9150509250929050565b600181811c908216806200021d57607f821691505b6020821081036200023e57634e487b7160e01b600052602260045260246000fd5b50919050565b601f8211156200029257600081815260208120601f850160051c810160208610156200026d5750805b601f850160051c820191505b818110156200028e5782815560010162000279565b5050505b505050565b81516001600160401b03811115620002b357620002b3620000d9565b620002cb81620002c4845462000208565b8462000244565b602080601f831160018114620003035760008415620002ea5750858301515b600019600386901b1c1916600185901b1785556200028e565b600085815260208120601f198616915b82811015620003345788860151825594840194600190910190840162000313565b5085821015620003535787850151600019600388901b60f8161c191681555b5050505050600190811b01905550565b61163480620003736000396000f3fe6080604052600436106101225760003560e01c8063715018a6116100a0578063c87b56dd11610064578063c87b56dd14610341578063d85d3d2714610361578063e985e9c514610374578063f18d20be146103af578063f2fde38b146103c457600080fd5b8063715018a6146102b95780638da5cb5b146102ce57806395d89b41146102ec578063a22cb46514610301578063b88d4fde1461032157600080fd5b806323b872dd116100e757806323b872dd146102195780632a075e181461023957806342842e0e146102595780636352211e1461027957806370a082311461029957600080fd5b80629a9b7b1461012e57806301ffc9a71461015757806306fdde0314610187578063081812fc146101a9578063095ea7b3146101f757600080fd5b3661012957005b600080fd5b34801561013a57600080fd5b5061014460075481565b6040519081526020015b60405180910390f35b34801561016357600080fd5b50610177610172366004610fec565b6103e4565b604051901515815260200161014e565b34801561019357600080fd5b5061019c610436565b60405161014e9190611010565b3480156101b557600080fd5b506101df6101c436600461105e565b6004602052600090815260409020546001600160a01b031681565b6040516001600160a01b03909116815260200161014e565b34801561020357600080fd5b5061021761021236600461108e565b6104c4565b005b34801561022557600080fd5b506102176102343660046110b8565b6105ab565b34801561024557600080fd5b5061021761025436600461113b565b610772565b34801561026557600080fd5b506102176102743660046110b8565b6107d7565b34801561028557600080fd5b506101df61029436600461105e565b6108ac565b3480156102a557600080fd5b506101446102b43660046111e1565b610903565b3480156102c557600080fd5b50610217610966565b3480156102da57600080fd5b506006546001600160a01b03166101df565b3480156102f857600080fd5b5061019c61097a565b34801561030d57600080fd5b5061021761031c3660046111fc565b610987565b34801561032d57600080fd5b5061021761033c366004611238565b6109f3565b34801561034d57600080fd5b5061019c61035c36600461105e565b610ab8565b61014461036f3660046112d3565b610b5a565b34801561038057600080fd5b5061017761038f366004611368565b600560209081526000928352604080842090915290825290205460ff1681565b3480156103bb57600080fd5b50610217610b87565b3480156103d057600080fd5b506102176103df3660046111e1565b610c05565b60006301ffc9a760e01b6001600160e01b03198316148061041557506380ac58cd60e01b6001600160e01b03198316145b806104305750635b5e139f60e01b6001600160e01b03198316145b92915050565b600080546104439061139b565b80601f016020809104026020016040519081016040528092919081815260200182805461046f9061139b565b80156104bc5780601f10610491576101008083540402835291602001916104bc565b820191906000526020600020905b81548152906001019060200180831161049f57829003601f168201915b505050505081565b6000818152600260205260409020546001600160a01b03163381148061050d57506001600160a01b038116600090815260056020908152604080832033845290915290205460ff165b61054f5760405162461bcd60e51b815260206004820152600e60248201526d1393d517d055551213d49256915160921b60448201526064015b60405180910390fd5b60008281526004602052604080822080546001600160a01b0319166001600160a01b0387811691821790925591518593918516917f8c5be1e5ebec7d5bd14f71427d1e84f3dd0314c0f7b2291e5b200ac8c7c3b92591a4505050565b6000818152600260205260409020546001600160a01b038481169116146106015760405162461bcd60e51b815260206004820152600a60248201526957524f4e475f46524f4d60b01b6044820152606401610546565b6001600160a01b03821661064b5760405162461bcd60e51b81526020600482015260116024820152701253959053125117d49150d25412515395607a1b6044820152606401610546565b336001600160a01b038416148061068557506001600160a01b038316600090815260056020908152604080832033845290915290205460ff165b806106a657506000818152600460205260409020546001600160a01b031633145b6106e35760405162461bcd60e51b815260206004820152600e60248201526d1393d517d055551213d49256915160921b6044820152606401610546565b6001600160a01b0380841660008181526003602090815260408083208054600019019055938616808352848320805460010190558583526002825284832080546001600160a01b03199081168317909155600490925284832080549092169091559251849392917fddf252ad1be2c89b69c2b068fc378daa952ba7f163c4a11628f55a4df523b3ef91a4505050565b61077a610c7e565b60005b81518110156107d3576107c182828151811061079b5761079b6113d5565b60200260200101516040518060800160405280604381526020016115bc60439139610cd8565b806107cb816113eb565b91505061077d565b5050565b6107e28383836105ab565b6001600160a01b0382163b158061088b5750604051630a85bd0160e11b8082523360048301526001600160a01b03858116602484015260448301849052608060648401526000608484015290919084169063150b7a029060a4016020604051808303816000875af115801561085b573d6000803e3d6000fd5b505050506040513d601f19601f8201168201806040525081019061087f9190611412565b6001600160e01b031916145b6108a75760405162461bcd60e51b81526004016105469061142f565b505050565b6000818152600260205260409020546001600160a01b0316806108fe5760405162461bcd60e51b815260206004820152600a6024820152691393d517d3525395115160b21b6044820152606401610546565b919050565b60006001600160a01b03821661094a5760405162461bcd60e51b815260206004820152600c60248201526b5a45524f5f4144445245535360a01b6044820152606401610546565b506001600160a01b031660009081526003602052604090205490565b61096e610c7e565b6109786000610dad565b565b600180546104439061139b565b3360008181526005602090815260408083206001600160a01b03871680855290835292819020805460ff191686151590811790915590519081529192917f17307eab39ab6107e8899845ad3d59bd9653f200f220920489ca2b5937696c31910160405180910390a35050565b6109fe8585856105ab565b6001600160a01b0384163b1580610a955750604051630a85bd0160e11b808252906001600160a01b0386169063150b7a0290610a469033908a90899089908990600401611459565b6020604051808303816000875af1158015610a65573d6000803e3d6000fd5b505050506040513d601f19601f82011682018060405250810190610a899190611412565b6001600160e01b031916145b610ab15760405162461bcd60e51b81526004016105469061142f565b5050505050565b6000818152600860205260409020805460609190610ad59061139b565b80601f0160208091040260200160405190810160405280929190818152602001828054610b019061139b565b8015610b4e5780601f10610b2357610100808354040283529160200191610b4e565b820191906000526020600020905b815481529060010190602001808311610b3157829003601f168201915b50505050509050919050565b600080600760008154610b6c906113eb565b91829055509050610b7d3382610dff565b6104308184610cd8565b610b8f610c7e565b6000610ba36006546001600160a01b031690565b90506000816001600160a01b03164760405160006040518083038185875af1925050503d8060008114610bf2576040519150601f19603f3d011682016040523d82523d6000602084013e610bf7565b606091505b50509050806107d357600080fd5b610c0d610c7e565b6001600160a01b038116610c725760405162461bcd60e51b815260206004820152602660248201527f4f776e61626c653a206e6577206f776e657220697320746865207a65726f206160448201526564647265737360d01b6064820152608401610546565b610c7b81610dad565b50565b6006546001600160a01b031633146109785760405162461bcd60e51b815260206004820181905260248201527f4f776e61626c653a2063616c6c6572206973206e6f7420746865206f776e65726044820152606401610546565b6000828152600260205260409020546001600160a01b0316610d07575050604080516020810190915260009052565b6000828152600860205260409020610d1f82826114fb565b8054610d2a9061139b565b80601f0160208091040260200160405190810160405280929190818152602001828054610d569061139b565b8015610da35780601f10610d7857610100808354040283529160200191610da3565b820191906000526020600020905b815481529060010190602001808311610d8657829003601f168201915b5050505050505050565b600680546001600160a01b038381166001600160a01b0319831681179093556040519116919082907f8be0079c531659141344cd1fd0a4f28419497f9722a3daafe3b4186f6b6457e090600090a35050565b610e098282610ecb565b6001600160a01b0382163b1580610eaf5750604051630a85bd0160e11b80825233600483015260006024830181905260448301849052608060648401526084830152906001600160a01b0384169063150b7a029060a4016020604051808303816000875af1158015610e7f573d6000803e3d6000fd5b505050506040513d601f19601f82011682018060405250810190610ea39190611412565b6001600160e01b031916145b6107d35760405162461bcd60e51b81526004016105469061142f565b6001600160a01b038216610f155760405162461bcd60e51b81526020600482015260116024820152701253959053125117d49150d25412515395607a1b6044820152606401610546565b6000818152600260205260409020546001600160a01b031615610f6b5760405162461bcd60e51b815260206004820152600e60248201526d1053149150511657d3525395115160921b6044820152606401610546565b6001600160a01b038216600081815260036020908152604080832080546001019055848352600290915280822080546001600160a01b0319168417905551839291907fddf252ad1be2c89b69c2b068fc378daa952ba7f163c4a11628f55a4df523b3ef908290a45050565b6001600160e01b031981168114610c7b57600080fd5b600060208284031215610ffe57600080fd5b813561100981610fd6565b9392505050565b600060208083528351808285015260005b8181101561103d57858101830151858201604001528201611021565b506000604082860101526040601f19601f8301168501019250505092915050565b60006020828403121561107057600080fd5b5035919050565b80356001600160a01b03811681146108fe57600080fd5b600080604083850312156110a157600080fd5b6110aa83611077565b946020939093013593505050565b6000806000606084860312156110cd57600080fd5b6110d684611077565b92506110e460208501611077565b9150604084013590509250925092565b634e487b7160e01b600052604160045260246000fd5b604051601f8201601f1916810167ffffffffffffffff81118282101715611133576111336110f4565b604052919050565b6000602080838503121561114e57600080fd5b823567ffffffffffffffff8082111561116657600080fd5b818501915085601f83011261117a57600080fd5b81358181111561118c5761118c6110f4565b8060051b915061119d84830161110a565b81815291830184019184810190888411156111b757600080fd5b938501935b838510156111d5578435825293850193908501906111bc565b98975050505050505050565b6000602082840312156111f357600080fd5b61100982611077565b6000806040838503121561120f57600080fd5b61121883611077565b91506020830135801515811461122d57600080fd5b809150509250929050565b60008060008060006080868803121561125057600080fd5b61125986611077565b945061126760208701611077565b935060408601359250606086013567ffffffffffffffff8082111561128b57600080fd5b818801915088601f83011261129f57600080fd5b8135818111156112ae57600080fd5b8960208285010111156112c057600080fd5b9699959850939650602001949392505050565b600060208083850312156112e657600080fd5b823567ffffffffffffffff808211156112fe57600080fd5b818501915085601f83011261131257600080fd5b813581811115611324576113246110f4565b611336601f8201601f1916850161110a565b9150808252868482850101111561134c57600080fd5b8084840185840137600090820190930192909252509392505050565b6000806040838503121561137b57600080fd5b61138483611077565b915061139260208401611077565b90509250929050565b600181811c908216806113af57607f821691505b6020821081036113cf57634e487b7160e01b600052602260045260246000fd5b50919050565b634e487b7160e01b600052603260045260246000fd5b60006001820161140b57634e487b7160e01b600052601160045260246000fd5b5060010190565b60006020828403121561142457600080fd5b815161100981610fd6565b60208082526010908201526f155394d0519157d49150d2541251539560821b604082015260600190565b6001600160a01b038681168252851660208201526040810184905260806060820181905281018290526000828460a0840137600060a0848401015260a0601f19601f85011683010190509695505050505050565b601f8211156108a757600081815260208120601f850160051c810160208610156114d45750805b601f850160051c820191505b818110156114f3578281556001016114e0565b505050505050565b815167ffffffffffffffff811115611515576115156110f4565b61152981611523845461139b565b846114ad565b602080601f83116001811461155e57600084156115465750858301515b600019600386901b1c1916600185901b1785556114f3565b600085815260208120601f198616915b8281101561158d5788860151825594840194600190910190840161156e565b50858210156115ab5787850151600019600388901b60f8161c191681555b5050505050600190811b0190555056fe68747470733a2f2f697066732e696f2f697066732f516d636e694276375551346747505151573242776244345a5a487a4e336f337450754e4c5a436242636864317a68a26469706673582212201243701a818cfe20fc758cb82d090d15d85e9a9cfffe3160c23a590ebd319f9264736f6c63430008100033",
    "linkReferences": {}
  },
  "methodIdentifiers": {
    "adminProfanityFilter(uint256[])": "2a075e18",
    "adminWithdraw()": "f18d20be",
    "approve(address,uint256)": "095ea7b3",
    "balanceOf(address)": "70a08231",
    "currentTokenId()": "009a9b7b",
    "getApproved(uint256)": "081812fc",
    "isApprovedForAll(address,address)": "e985e9c5",
    "mint(string)": "d85d3d27",
    "name()": "06fdde03",
    "owner()": "8da5cb5b",
    "ownerOf(uint256)": "6352211e",
    "renounceOwnership()": "715018a6",
    "safeTransferFrom(address,address,uint256)": "42842e0e",
    "safeTransferFrom(address,address,uint256,bytes)": "b88d4fde",
    "setApprovalForAll(address,bool)": "a22cb465",
    "supportsInterface(bytes4)": "01ffc9a7",
    "symbol()": "95d89b41",
    "tokenURI(uint256)": "c87b56dd",
    "transferFrom(address,address,uint256)": "23b872dd",
    "transferOwnership(address)": "f2fde38b"
  },
  "id": 3
}