{
  "abi": [
    {
      "inputs": [
        {
          "internalType": "address",
          "name": "_recipient",
          "type": "address"
        }
      ],
      "stateMutability": "nonpayable",
      "type": "constructor"
    },
    {
      "anonymous": false,
      "inputs": [
        {
          "indexed": true,
          "internalType": "address",
          "name": "owner",
          "type": "address"
        },
        {
          "indexed": true,
          "internalType": "address",
          "name": "spender",
          "type": "address"
        },
        {
          "indexed": true,
          "internalType": "uint256",
          "name": "id",
          "type": "uint256"
        }
      ],
      "name": "Approval",
      "type": "event"
    },
    {
      "anonymous": false,
      "inputs": [
        {
          "indexed": true,
          "internalType": "address",
          "name": "owner",
          "type": "address"
        },
        {
          "indexed": true,
          "internalType": "address",
          "name": "operator",
          "type": "address"
        },
        {
          "indexed": false,
          "internalType": "bool",
          "name": "approved",
          "type": "bool"
        }
      ],
      "name": "ApprovalForAll",
      "type": "event"
    },
    {
      "anonymous": false,
      "inputs": [
        {
          "indexed": true,
          "internalType": "address",
          "name": "from",
          "type": "address"
        },
        {
          "indexed": true,
          "internalType": "address",
          "name": "to",
          "type": "address"
        },
        {
          "indexed": true,
          "internalType": "uint256",
          "name": "id",
          "type": "uint256"
        }
      ],
      "name": "Transfer",
      "type": "event"
    },
    {
      "inputs": [
        {
          "internalType": "address",
          "name": "spender",
          "type": "address"
        },
        {
          "internalType": "uint256",
          "name": "id",
          "type": "uint256"
        }
      ],
      "name": "approve",
      "outputs": [],
      "stateMutability": "nonpayable",
      "type": "function"
    },
    {
      "inputs": [
        {
          "internalType": "address",
          "name": "owner",
          "type": "address"
        }
      ],
      "name": "balanceOf",
      "outputs": [
        {
          "internalType": "uint256",
          "name": "",
          "type": "uint256"
        }
      ],
      "stateMutability": "view",
      "type": "function"
    },
    {
      "inputs": [],
      "name": "baseURI",
      "outputs": [
        {
          "internalType": "string",
          "name": "",
          "type": "string"
        }
      ],
      "stateMutability": "view",
      "type": "function"
    },
    {
      "inputs": [],
      "name": "caseyHash",
      "outputs": [
        {
          "internalType": "string",
          "name": "",
          "type": "string"
        }
      ],
      "stateMutability": "view",
      "type": "function"
    },
    {
      "inputs": [
        {
          "internalType": "string",
          "name": "_caseyHash",
          "type": "string"
        },
        {
          "internalType": "string",
          "name": "_markusHash",
          "type": "string"
        }
      ],
      "name": "changeHashes",
      "outputs": [],
      "stateMutability": "nonpayable",
      "type": "function"
    },
    {
      "inputs": [
        {
          "internalType": "string",
          "name": "newURI",
          "type": "string"
        }
      ],
      "name": "changeTokenURI",
      "outputs": [],
      "stateMutability": "nonpayable",
      "type": "function"
    },
    {
      "inputs": [
        {
          "internalType": "uint256",
          "name": "",
          "type": "uint256"
        }
      ],
      "name": "getApproved",
      "outputs": [
        {
          "internalType": "address",
          "name": "",
          "type": "address"
        }
      ],
      "stateMutability": "view",
      "type": "function"
    },
    {
      "inputs": [
        {
          "internalType": "address",
          "name": "",
          "type": "address"
        },
        {
          "internalType": "address",
          "name": "",
          "type": "address"
        }
      ],
      "name": "isApprovedForAll",
      "outputs": [
        {
          "internalType": "bool",
          "name": "",
          "type": "bool"
        }
      ],
      "stateMutability": "view",
      "type": "function"
    },
    {
      "inputs": [],
      "name": "markusHash",
      "outputs": [
        {
          "internalType": "string",
          "name": "",
          "type": "string"
        }
      ],
      "stateMutability": "view",
      "type": "function"
    },
    {
      "inputs": [],
      "name": "name",
      "outputs": [
        {
          "internalType": "string",
          "name": "",
          "type": "string"
        }
      ],
      "stateMutability": "view",
      "type": "function"
    },
    {
      "inputs": [
        {
          "internalType": "uint256",
          "name": "id",
          "type": "uint256"
        }
      ],
      "name": "ownerOf",
      "outputs": [
        {
          "internalType": "address",
          "name": "owner",
          "type": "address"
        }
      ],
      "stateMutability": "view",
      "type": "function"
    },
    {
      "inputs": [
        {
          "internalType": "address",
          "name": "from",
          "type": "address"
        },
        {
          "internalType": "address",
          "name": "to",
          "type": "address"
        },
        {
          "internalType": "uint256",
          "name": "id",
          "type": "uint256"
        }
      ],
      "name": "safeTransferFrom",
      "outputs": [],
      "stateMutability": "nonpayable",
      "type": "function"
    },
    {
      "inputs": [
        {
          "internalType": "address",
          "name": "from",
          "type": "address"
        },
        {
          "internalType": "address",
          "name": "to",
          "type": "address"
        },
        {
          "internalType": "uint256",
          "name": "id",
          "type": "uint256"
        },
        {
          "internalType": "bytes",
          "name": "data",
          "type": "bytes"
        }
      ],
      "name": "safeTransferFrom",
      "outputs": [],
      "stateMutability": "nonpayable",
      "type": "function"
    },
    {
      "inputs": [
        {
          "internalType": "address",
          "name": "operator",
          "type": "address"
        },
        {
          "internalType": "bool",
          "name": "approved",
          "type": "bool"
        }
      ],
      "name": "setApprovalForAll",
      "outputs": [],
      "stateMutability": "nonpayable",
      "type": "function"
    },
    {
      "inputs": [
        {
          "internalType": "bytes4",
          "name": "interfaceId",
          "type": "bytes4"
        }
      ],
      "name": "supportsInterface",
      "outputs": [
        {
          "internalType": "bool",
          "name": "",
          "type": "bool"
        }
      ],
      "stateMutability": "view",
      "type": "function"
    },
    {
      "inputs": [],
      "name": "symbol",
      "outputs": [
        {
          "internalType": "string",
          "name": "",
          "type": "string"
        }
      ],
      "stateMutability": "view",
      "type": "function"
    },
    {
      "inputs": [
        {
          "internalType": "uint256",
          "name": "id",
          "type": "uint256"
        }
      ],
      "name": "tokenURI",
      "outputs": [
        {
          "internalType": "string",
          "name": "uri",
          "type": "string"
        }
      ],
      "stateMutability": "view",
      "type": "function"
    },
    {
      "inputs": [
        {
          "internalType": "address",
          "name": "from",
          "type": "address"
        },
        {
          "internalType": "address",
          "name": "to",
          "type": "address"
        },
        {
          "internalType": "uint256",
          "name": "id",
          "type": "uint256"
        }
      ],
      "name": "transferFrom",
      "outputs": [],
      "stateMutability": "nonpayable",
      "type": "function"
    }
  ],
  "bytecode": {
    "object": "0x60806040523480156200001157600080fd5b50604051620015e1380380620015e183398101604081905262000034916200036e565b6040518060400160405280601a81526020017f4d6172737465726c756e6420616e6420746865205072696e63650000000000008152506040518060400160405280600481526020016350524e4360e01b815250816000908162000098919062000445565b506001620000a7828262000445565b505060408051808201909152600581526461723a2f2f60d81b602082015260069150620000d5908262000445565b506040518060600160405280602b8152602001620015b6602b9139600790620000ff908262000445565b506040518060600160405280602b81526020016200158b602b913960089062000129908262000445565b50600980546001600160a01b031916339081179091556200014c90600162000160565b6200015981600262000160565b506200053d565b6200016c82826200025f565b6001600160a01b0382163b1580620002165750604051630a85bd0160e11b80825233600483015260006024830181905260448301849052608060648401526084830152906001600160a01b0384169063150b7a029060a4016020604051808303816000875af1158015620001e4573d6000803e3d6000fd5b505050506040513d601f19601f820116820180604052508101906200020a919062000511565b6001600160e01b031916145b6200025b5760405162461bcd60e51b815260206004820152601060248201526f155394d0519157d49150d2541251539560821b60448201526064015b60405180910390fd5b5050565b6001600160a01b038216620002ab5760405162461bcd60e51b81526020600482015260116024820152701253959053125117d49150d25412515395607a1b604482015260640162000252565b6000818152600260205260409020546001600160a01b031615620003035760405162461bcd60e51b815260206004820152600e60248201526d1053149150511657d3525395115160921b604482015260640162000252565b6001600160a01b038216600081815260036020908152604080832080546001019055848352600290915280822080546001600160a01b0319168417905551839291907fddf252ad1be2c89b69c2b068fc378daa952ba7f163c4a11628f55a4df523b3ef908290a45050565b6000602082840312156200038157600080fd5b81516001600160a01b03811681146200039957600080fd5b9392505050565b634e487b7160e01b600052604160045260246000fd5b600181811c90821680620003cb57607f821691505b602082108103620003ec57634e487b7160e01b600052602260045260246000fd5b50919050565b601f8211156200044057600081815260208120601f850160051c810160208610156200041b5750805b601f850160051c820191505b818110156200043c5782815560010162000427565b5050505b505050565b81516001600160401b03811115620004615762000461620003a0565b6200047981620004728454620003b6565b84620003f2565b602080601f831160018114620004b15760008415620004985750858301515b600019600386901b1c1916600185901b1785556200043c565b600085815260208120601f198616915b82811015620004e257888601518255948401946001909101908401620004c1565b5085821015620005015787850151600019600388901b60f8161c191681555b5050505050600190811b01905550565b6000602082840312156200052457600080fd5b81516001600160e01b0319811681146200039957600080fd5b61103e806200054d6000396000f3fe608060405234801561001057600080fd5b50600436106101165760003560e01c80636352211e116100a257806395d89b411161007157806395d89b4114610246578063a22cb4651461024e578063b88d4fde14610261578063c87b56dd14610274578063e985e9c51461028757600080fd5b80636352211e146101f75780636c0360eb1461020a57806370a08231146102125780637d7b17a11461023357600080fd5b80631b5bc883116100e95780631b5bc883146101ae57806323b872dd146101b65780633bb5876c146101c957806340efb8c4146101d157806342842e0e146101e457600080fd5b806301ffc9a71461011b57806306fdde0314610143578063081812fc14610158578063095ea7b314610199575b600080fd5b61012e610129366004610a27565b6102b5565b60405190151581526020015b60405180910390f35b61014b610307565b60405161013a9190610a4b565b610181610166366004610aa0565b6004602052600090815260409020546001600160a01b031681565b6040516001600160a01b03909116815260200161013a565b6101ac6101a7366004610ad0565b610395565b005b61014b61045f565b6101ac6101c4366004610afa565b61046c565b61014b610612565b6101ac6101df366004610bd9565b61061f565b6101ac6101f2366004610afa565b610667565b610181610205366004610aa0565b61075a565b61014b6107b1565b610225610220366004610c3d565b6107be565b60405190815260200161013a565b6101ac610241366004610c58565b610821565b61014b61085b565b6101ac61025c366004610c95565b610868565b6101ac61026f366004610cd1565b6108d4565b61014b610282366004610aa0565b6109bc565b61012e610295366004610d6c565b600560209081526000928352604080842090915290825290205460ff1681565b60006301ffc9a760e01b6001600160e01b0319831614806102e657506380ac58cd60e01b6001600160e01b03198316145b806103015750635b5e139f60e01b6001600160e01b03198316145b92915050565b6000805461031490610d9f565b80601f016020809104026020016040519081016040528092919081815260200182805461034090610d9f565b801561038d5780601f106103625761010080835404028352916020019161038d565b820191906000526020600020905b81548152906001019060200180831161037057829003601f168201915b505050505081565b6000818152600260205260409020546001600160a01b0316338114806103de57506001600160a01b038116600090815260056020908152604080832033845290915290205460ff165b6104035760405162461bcd60e51b81526004016103fa90610dd9565b60405180910390fd5b60008281526004602052604080822080546001600160a01b0319166001600160a01b0387811691821790925591518593918516917f8c5be1e5ebec7d5bd14f71427d1e84f3dd0314c0f7b2291e5b200ac8c7c3b92591a4505050565b6007805461031490610d9f565b6000818152600260205260409020546001600160a01b038481169116146104c25760405162461bcd60e51b815260206004820152600a60248201526957524f4e475f46524f4d60b01b60448201526064016103fa565b6001600160a01b03821661050c5760405162461bcd60e51b81526020600482015260116024820152701253959053125117d49150d25412515395607a1b60448201526064016103fa565b336001600160a01b038416148061054657506001600160a01b038316600090815260056020908152604080832033845290915290205460ff165b8061056757506000818152600460205260409020546001600160a01b031633145b6105835760405162461bcd60e51b81526004016103fa90610dd9565b6001600160a01b0380841660008181526003602090815260408083208054600019019055938616808352848320805460010190558583526002825284832080546001600160a01b03199081168317909155600490925284832080549092169091559251849392917fddf252ad1be2c89b69c2b068fc378daa952ba7f163c4a11628f55a4df523b3ef91a4505050565b6008805461031490610d9f565b6009546001600160a01b031633146106495760405162461bcd60e51b81526004016103fa90610dd9565b60076106558382610e4f565b5060086106628282610e4f565b505050565b61067283838361046c565b6001600160a01b0382163b158061071b5750604051630a85bd0160e11b8082523360048301526001600160a01b03858116602484015260448301849052608060648401526000608484015290919084169063150b7a029060a4016020604051808303816000875af11580156106eb573d6000803e3d6000fd5b505050506040513d601f19601f8201168201806040525081019061070f9190610f0f565b6001600160e01b031916145b6106625760405162461bcd60e51b815260206004820152601060248201526f155394d0519157d49150d2541251539560821b60448201526064016103fa565b6000818152600260205260409020546001600160a01b0316806107ac5760405162461bcd60e51b815260206004820152600a6024820152691393d517d3525395115160b21b60448201526064016103fa565b919050565b6006805461031490610d9f565b60006001600160a01b0382166108055760405162461bcd60e51b815260206004820152600c60248201526b5a45524f5f4144445245535360a01b60448201526064016103fa565b506001600160a01b031660009081526003602052604090205490565b6009546001600160a01b0316331461084b5760405162461bcd60e51b81526004016103fa90610dd9565b60066108578282610e4f565b5050565b6001805461031490610d9f565b3360008181526005602090815260408083206001600160a01b03871680855290835292819020805460ff191686151590811790915590519081529192917f17307eab39ab6107e8899845ad3d59bd9653f200f220920489ca2b5937696c31910160405180910390a35050565b6108df85858561046c565b6001600160a01b0384163b15806109765750604051630a85bd0160e11b808252906001600160a01b0386169063150b7a02906109279033908a90899089908990600401610f2c565b6020604051808303816000875af1158015610946573d6000803e3d6000fd5b505050506040513d601f19601f8201168201806040525081019061096a9190610f0f565b6001600160e01b031916145b6109b55760405162461bcd60e51b815260206004820152601060248201526f155394d0519157d49150d2541251539560821b60448201526064016103fa565b5050505050565b6060816001036109f157600660076040516020016109db929190610ff3565b6040516020818303038152906040529050919050565b816002036107ac57600660086040516020016109db929190610ff3565b6001600160e01b031981168114610a2457600080fd5b50565b600060208284031215610a3957600080fd5b8135610a4481610a0e565b9392505050565b600060208083528351808285015260005b81811015610a7857858101830151858201604001528201610a5c565b81811115610a8a576000604083870101525b50601f01601f1916929092016040019392505050565b600060208284031215610ab257600080fd5b5035919050565b80356001600160a01b03811681146107ac57600080fd5b60008060408385031215610ae357600080fd5b610aec83610ab9565b946020939093013593505050565b600080600060608486031215610b0f57600080fd5b610b1884610ab9565b9250610b2660208501610ab9565b9150604084013590509250925092565b634e487b7160e01b600052604160045260246000fd5b600082601f830112610b5d57600080fd5b813567ffffffffffffffff80821115610b7857610b78610b36565b604051601f8301601f19908116603f01168101908282118183101715610ba057610ba0610b36565b81604052838152866020858801011115610bb957600080fd5b836020870160208301376000602085830101528094505050505092915050565b60008060408385031215610bec57600080fd5b823567ffffffffffffffff80821115610c0457600080fd5b610c1086838701610b4c565b93506020850135915080821115610c2657600080fd5b50610c3385828601610b4c565b9150509250929050565b600060208284031215610c4f57600080fd5b610a4482610ab9565b600060208284031215610c6a57600080fd5b813567ffffffffffffffff811115610c8157600080fd5b610c8d84828501610b4c565b949350505050565b60008060408385031215610ca857600080fd5b610cb183610ab9565b915060208301358015158114610cc657600080fd5b809150509250929050565b600080600080600060808688031215610ce957600080fd5b610cf286610ab9565b9450610d0060208701610ab9565b935060408601359250606086013567ffffffffffffffff80821115610d2457600080fd5b818801915088601f830112610d3857600080fd5b813581811115610d4757600080fd5b896020828501011115610d5957600080fd5b9699959850939650602001949392505050565b60008060408385031215610d7f57600080fd5b610d8883610ab9565b9150610d9660208401610ab9565b90509250929050565b600181811c90821680610db357607f821691505b602082108103610dd357634e487b7160e01b600052602260045260246000fd5b50919050565b6020808252600e908201526d1393d517d055551213d49256915160921b604082015260600190565b601f82111561066257600081815260208120601f850160051c81016020861015610e285750805b601f850160051c820191505b81811015610e4757828155600101610e34565b505050505050565b815167ffffffffffffffff811115610e6957610e69610b36565b610e7d81610e778454610d9f565b84610e01565b602080601f831160018114610eb25760008415610e9a5750858301515b600019600386901b1c1916600185901b178555610e47565b600085815260208120601f198616915b82811015610ee157888601518255948401946001909101908401610ec2565b5085821015610eff5787850151600019600388901b60f8161c191681555b5050505050600190811b01905550565b600060208284031215610f2157600080fd5b8151610a4481610a0e565b6001600160a01b038681168252851660208201526040810184905260806060820181905281018290526000828460a0840137600060a0848401015260a0601f19601f85011683010190509695505050505050565b60008154610f8d81610d9f565b60018281168015610fa55760018114610fba57610fe9565b60ff1984168752821515830287019450610fe9565b8560005260208060002060005b85811015610fe05781548a820152908401908201610fc7565b50505082870194505b5050505092915050565b6000610c8d6110028386610f80565b84610f8056fea26469706673582212208373aa026fbce2082e78f85442654bc18e57945ac9f1d359c7e3daac25ac9adf64736f6c634300080f00337771795335754754394d6f4b516838797944475441325a5f6b45346546394871327278446b6850586d73495253656d343034365f6239635936584264477a3677364f6150655a525377786c6f69674e7850714a6f626f",
    "linkReferences": {}
  },
  "methodIdentifiers": {
    "approve(address,uint256)": "095ea7b3",
    "balanceOf(address)": "70a08231",
    "baseURI()": "6c0360eb",
    "caseyHash()": "1b5bc883",
    "changeHashes(string,string)": "40efb8c4",
    "changeTokenURI(string)": "7d7b17a1",
    "getApproved(uint256)": "081812fc",
    "isApprovedForAll(address,address)": "e985e9c5",
    "markusHash()": "3bb5876c",
    "name()": "06fdde03",
    "ownerOf(uint256)": "6352211e",
    "safeTransferFrom(address,address,uint256)": "42842e0e",
    "safeTransferFrom(address,address,uint256,bytes)": "b88d4fde",
    "setApprovalForAll(address,bool)": "a22cb465",
    "supportsInterface(bytes4)": "01ffc9a7",
    "symbol()": "95d89b41",
    "tokenURI(uint256)": "c87b56dd",
    "transferFrom(address,address,uint256)": "23b872dd"
  },
  "id": 1
}